:020000040000FA
:10000000004000200D930100499301004B93010033
:1000100000000000000000000000000000000000E0
:100020000000000000000000000000004D930100EF
:1000300000000000000000004F93010051930100F8
:10004000539301000D0D0000519A010053930100DC
:1000500053930100000000000D9401005393010030
:10006000418D0000C19F0100C5980100539301001C
:1000700053930100539301005393010053930100E4
:1000800053930100539301005393010053930100D4
:1000900053930100C98F0100A58F01007D8E0000E0
:1000A0008D8E00005393010000000000000000004E
:1000B0000000000000000000000000000000000040
:1000C00010B5064C2378002B07D1054B002B02D02E
:1000D000044800E000BF0123237010BD2001002070
:1000E00000000000C08E0300044B10B5002B03D0AD
:1000F0000349044800E000BF10BDC04600000000F6
:1001000024010020C08E0300164B002B00D1144B9D
:100110009D46402292029A1A924600218B460F4633
:100120001348144A121A29F06AF90F4B002B00D019
:1001300098470E4B002B00D0984700200021040068
:100140000D000D48002802D00C4800E000BF20F050
:10015000F5FE2000290028F0D0FD20F03BFEC0462F
:100160000000080000400020000000000000000027
:1001700018010020E42F0020000000000000000013
:1001800010B5024924F042FD10BDC046BE02030076
:10019000054B10B5186827F0CBFD044B002800D1A3
:1001A000034B180010BDC0469C2A0020F0B6020088
:1001B000E8B6020010B5034B186827F0C1FD0248ED
:1001C00010BDC0469C2A00205896020010B5034B73
:1001D000186827F023FE26F054FD10BD9C2A00204D
:1001E00010B5034B186827F020FE26F04AFD10BD1D
:1001F0009C2A002010B5034B186827F01DFE26F03E
:1002000040FD10BD9C2A002010B5034B186827F054
:10021000C8FD26F036FD10BD9C2A002030B593B0F5
:1002200008F02CFD184C200028F0C8F9174D28685C
:1002300016F014FE200028F0C6F908F00FFD21F09A
:10024000A0FD21F056FC0400296803A827F066FDF4
:100250000F4B20000A93039B0B93049B0C93059B6D
:100260000D93069B0E93079B0F93089B1093099B7E
:100270000193119323F082FD200020220AA905F0AA
:100280003FF9044813B030BDA42A00209C2A002066
:1002900055BA11C058960200F8B5114D04002868EF
:1002A00027F046FD002802D12000FFF7B7FF0D4BD5
:1002B0001B78002B0DD10C4E3478E4B2002C08D101
:1002C00001272868377003685B689847054B3470CE
:1002D0001F70286816F09EFE26F0D3FCF8BDC046BD
:1002E0009C2A0020CA2D0020CB2D0020F0B58DB017
:1002F00021F0FFFB0E4B02689A4217D10469416856
:10030000089444698268C36809948469C0690A943E
:1003100084466C4605910692079308A8E0C8E0C49D
:10032000604620600348006827F0E2FC0DB0F0BD95
:1003300055BA11C09C2A0020F7B50020214A224E50
:1003400012783368111D4900CC5A5F185988019002
:10035000A020C00584466405640D4C431B49A412CB
:100360000968787807270500BD43F82D1DD00125C1
:10037000C00885402800A1256746ED00013278516C
:10038000D2B2101D4000C55A1F186D0558886D0D5A
:1003900068438012001BE4D00A4C2270019A002AA4
:1003A00002D00A4A33601160FEBD6046084A5C68AC
:1003B0008450002903D001220B00002101920A0081
:1003C0000C00DEE7CC2D00203C0100204001002085
:1003D0000C05000010B572B600220F4B18681A60A9
:1003E00062B6904210D10D4B0D4A1B680D489342E6
:1003F00000D010001A7802705A8842805A68426011
:10040000002219788A4200D310BD510044185918AF
:10041000098901322181F4E7400100203C010020DC
:100420004401002074010020044B054A1A60002397
:10043000044A1360044A13707047C0463C01002010
:100440006897020040010020CC2D002010B57822D2
:100450000249022008F0C4FC10BDC0463903000068
:10046000421E084BFF3A10B504009A4207D8FFF726
:10047000B1FF054B241144801860002010BD0120FD
:100480004042FBE740410F0040010020044B1B6845
:10049000002B01D1034B1B68588800017047C046F0
:1004A000400100203C010020F7B53D4A04000D004A
:1004B0000B00914200D913008022D200D31A01937D
:1004C000FFF788FF0122A24046680092164207D13A
:1004D0002300A0210327C133FF339B00C9055F50D0
:1004E000002703789F4206DB002D01D0132B0BD988
:1004F0002C4B1860F7BD391D490042185278D208BC
:10050000A24243D00137EDE7009A191D3243426001
:10051000019A490055050A5A6D0DD20AD2022A43A2
:100520000A525205E400520F4118144301334C7033
:100530000370851C012225E0009A013BDBB2964343
:1005400003704660BB42F4DD04335B001B5A0B5260
:10055000EFE72F00131D5B00195A2E894905490D3D
:10056000531E1C1D6400245A6405640D8C4204D97A
:10057000FC88023F7C81013BF3D205335B001E52B5
:100580000132023503789A42E3DBB1E7002DD3D084
:10059000019B5A050B5A520DDB0ADB021343D6E7C7
:1005A000FF0300004001002070B500210400FFF7A8
:1005B0007BFF00210D4B18680578A94200DB70BD58
:1005C0000B1D5B00C3185A78161CD208944201D048
:1005D0000131F2E70822524232435A700123A0212E
:1005E000A340034AC9058B50E9E7C0463C010020FF
:1005F0000C05000010B50400082023F076FB024B28
:100600004460036010BDC04698970200F0B585B005
:1006100005001600080003AB02AA01A923F093FD10
:100620000398364FB84209D0032807D009F074FE6A
:10063000B060002804D1324806F04AFA0123B360C2
:100640000198B84229D10024B368A34200DC6C1E93
:100650000298B84225D1B368002B47DD2800002C52
:100660002ADA641901D5B368DC17002834DA401996
:1006700001D501204042B368002B00DA0130B36895
:10068000002B2DDDA04200DA2000013B70605842B3
:100690005841C0B2346005B0F0BD09F03DFE040021
:1006A000D6E709F039FEB368002801DBDA0F8018BD
:1006B000002CD6DB002B03DDAC42D6D92C00D4E7CE
:1006C000002BD2D0A54200D86C1E002804DA4019B5
:1006D000D4D501204042D1E7A842D0D92800CEE7A6
:1006E000002BD2D0A042D0DD601CCEE7002C01DA76
:1006F0000020B6E700208342E4D1C0E7589602000C
:10070000C3020300F0B5060085B017001B2805D111
:100710000A9A974209D0002005B0F0BD19281AD0D6
:100720001C281AD00A9A0A9717001A000B00110009
:100730000A9A0192BA4200D901971D000C000023C9
:100740000093009B019A934209D10A9BBB4220D09F
:10075000E1D30120E0E71A26EAE71D26E8E7029543
:10076000039401CD02CC09F085FD002802D0009B46
:100770000133E5E71B2ECED0039B30001A68029BA5
:10078000196806F0ADF9044BC01A43425841C0B293
:10079000C2E71A2EDDD1BEE7F0B60200F0B51E00AA
:1007A00085B0039018680D00170009F0CDFC736840
:1007B000019002930024022F0ED90123B268290070
:1007C00009F082FE0400032F06D029000123F268FD
:1007D000019809F079FE0500A54202D8084806F004
:1007E00077F9039AA3000299D05809F043FD002835
:1007F00001D10134F0E701206400204305B0F0BDD1
:10080000DD020300044B054A05481A60054A5A6098
:1008100000221A817047C046A8010020200307006B
:100820005896020074696275F7B51600314A0B00DC
:1008300088321768002F02D12F4806F049F90221AB
:100840002E4C2F4DE167A324E4002C592D4AE4B22D
:1008500006343C192C4F3D68A54204D12B4B116046
:1008600001930198FEBD2578002832D1601C002B31
:1008700004D129000CF0A0FD01900BE05A68AA42B7
:1008800000D92A000100186828F0A6FD01226B009B
:100890001A430192002E0ED0621953785B423360E6
:1008A000D37811791B0209040B43917852790B43D9
:1008B0001206134373603E68A91D6118721A200066
:1008C00028F08AFD0223751B0E4A063D3D60136029
:1008D000C7E7022D04D8002303600E330193D9E744
:1008E0002100042228F06FFDE91E201D00220CF0DB
:1008F0004BFDC1E77C2E00207603030004E100E0FD
:100900000010004000E100E0B40100205896020011
:100910007FB5002101AA0800FFF786FF0A4B984225
:100920000FD00121019B03905A00029B0A438B4088
:100930000492064A032013400B4303A9059305F0D4
:1009400057F907B000BDC04658960200FEFFFF7F72
:10095000002213B501AC11002000FFF765FF094B21
:1009600098420ED02378022B08D96378012B05D149
:10097000A378002B02D1E378012B02D0024806F0C5
:10098000A7F816BD589602005603030002220B4B2F
:1009900010B5DA6700220121094B5A61094A116139
:1009A0005A69002AFCD0084C88342068002803D0FB
:1009B00023F0CAF90023236010BDC04604E100E023
:1009C000FC100040001000407C2E002010B5FFF706
:1009D000DDFF014810BDC04658960200F8B5FFF78C
:1009E000D5FF364C267865780636013575432800E4
:1009F00023F07BF9324A861916600022314B4519E3
:100A000088331860304B01211D60304B5A608022C2
:100A1000D20511605A68002AFCD003212C4B615684
:100A20002C4A00259950A178043A9950617A0832ED
:100A300099506168284A08269950217A274A284FF8
:100A400099500121274A9D5004329950264A9E50C0
:100A50008122247892042243A324E4001A51022420
:100A6000224A9C50224A9F50224F043A9F501827F6
:100A7000214A9F50214AC0279850C12292009E507F
:100A80001F4ABF00D0591F4E0640C020000230430D
:100A9000D051C020400014501460102280301C58E7
:100AA00022431A50184A5560596051680029FCD0F9
:100AB0000021116101229A60F8BDC046A801002002
:100AC000B40100207C2E0020A4010020FC00004086
:100AD000001000400C0500001C050000240500006B
:100AE000FFFF00002C050000140500003405000085
:100AF0003C05000021100100540500000405000021
:100B000000E100E0FF00FFFFFC10004010B5FFF720
:100B100065FF014810BDC04658960200F0B50500BB
:100B20008DB01600002802D0694806F095F9694B8F
:100B300009AA190091C991C21A781F7A06925A78A7
:100B400005929A78039203229A5604925A685B7A25
:100B5000019202937368AB424CD9EB000793B368E0
:100B6000EA009B181A68002A1BD0042A19D058687A
:100B700009F0FEFBB368EA00040098580CF026FC6C
:100B80000200BF38FF3806282ED819F033FB040CBA
:100B9000131920262800631EFA2B00D995E0E3B232
:100BA00006930135D6E7631EFD2B00D98DE0E3B235
:100BB0000593F6E7532C00D987E0E3B20393F0E7FF
:100BC000072C00D981E0444B1B570493E9E7022C22
:100BD00000D97AE0E3B20293E3E70194E1E7FF2C66
:100BE00000D972E0E7B2DCE73C493D4813F038F940
:100BF00013F060FF3B4B09AC88331B68002B12D10C
:100C0000069B27722370059B6370039BA370049B54
:100C1000E370019B0A93029B63722E4B07CC07C3C0
:100C200031480DB0F0BD069B2A4D2370059B6370C3
:100C300022882B889A420FD0FFF7A8FE039B2772C9
:100C4000A370049BE370019B0A93029B63720ECC1A
:100C50000EC5FFF7C3FEE3E70222244B2449DA67FF
:100C60000022244B4A6101321A614A69002AFCD0F1
:100C7000039809AA907004981772D07001980A908E
:100C800002985072134870CA70C01B4A049898505A
:100C90000398043A98500298083298500198174ADD
:100CA0009850174A9F5000224A6001325A604A68A1
:100CB000002AFCD000220A61C02101329A60114B47
:100CC000013249005A501A60AAE70F498DE7C04621
:100CD00000030300A8010020F80203001B03030027
:100CE00034EA02007C2E00205896020004E100E065
:100CF000FC100040001000400C0500001C05000026
:100D00002405000000E100E031030300214BF7B5AA
:100D10005A68214D002A03D000225A600132AA608D
:100D20001A69002A34D000221A61A323DB00E85894
:100D30001A4BC2B2883319680C78A24201D214004F
:100D400008708023DB00EB58012B1FD1144E154A8D
:100D50003768A31D12680193FB189A4216D3621CD0
:100D6000380028F030FBA923DB00EB58621CBB5491
:100D700019F094F93368020A1C19E270020C22710E
:100D8000019AA0709B18000E607133600123AB6064
:100D9000F7BDC046FC100040001000407C2E002033
:100DA000B4010020A4010020F7B5314F00933B00AF
:100DB000883301921A680E00002A02D12D4805F0EE
:100DC00087FE02212C4B2D4CD96700232C4D6361EB
:100DD00001332B616369002BFCD0A323DB00EB58AC
:100DE0000099DBB27118994203D9B3423DD39B1BE2
:100DF0000093009B8837F31813703B6801000133A0
:100E00001800320028F0DFFA009B002B06D038686B
:100E1000013680191A00019928F0D5FA0023636081
:100E200001332B606368002BFCD00123AB600023EF
:100E300023612369002BFCD00023636101332B6104
:100E40006369002BFCD00023636001336B6063682F
:100E5000002BFCD00023C021022223610133AB60B0
:100E6000084B49005A501A60F7BD1E000023BFE727
:100E70007C2E00207603030004E100E0FC1000401B
:100E80000010004000E100E007B501A90CF0D4FE1D
:100E9000019B020003210248FFF786FF01480EBDB7
:100EA000F4020300589602001FB5012201A909F0BF
:100EB000EDFB002301981A000299FFF775FF014826
:100EC00005B000BD58960200F7B501911149040024
:100ED0001700002523F09AFE7B68AB4204D80E4928
:100EE000200023F093FEF7BD002D03D00B49200016
:100EF00023F08CFE019BAE009A5909492000BE19CF
:100F000023F045FF0122B168200009F035F90135D1
:100F1000E2E7C0465F380300993C03008B030300FF
:100F20008E03030070B5040009F00EF900230C498C
:100F3000DA0052181568A54205D15168094823F016
:100F400065FE012070BD0133612BF1D1064B9C423F
:100F500003D0984201D00020F4E70449EEE7C046F0
:100F6000F498020000B902006CBD02009203030075
:100F70000122010003001140100000290CD10800DB
:100F8000990709D11B68054910008B4204D0044819
:100F9000181A43425841C0B27047C0460CC0020004
:100FA000F8B602000023FA21094A89001360094AB1
:100FB0001370094A1360094A1160094A1370094AFB
:100FC000111D0832D3670122CB67074B1A70704797
:100FD000BC010020CD2D0020B80100200800002019
:100FE000CE2D00207C2E0020CF2D002010B5084BE8
:100FF000084A1978002907D1916C002902D0FFF71F
:10100000D1FF10BD30BFF4E700221A70F9E7C046E7
:10101000CF2D00207C2E0020837F0248002B00D1A2
:1010200001487047F0B60200E8B602000023A02293
:10103000E02110B583770C4BD2050902D1500B4843
:101040000FF0D8FE0A480FF0D5FE0A480FF0D2FE86
:1010500009480FF0CFFE09480FF0CCFE08480FF00A
:10106000C9FE084810BDC0460C050000F0B00200E3
:10107000F8B0020008B1020010B1020020B1020075
:1010800098B0020058960200F8B5164C2368002B61
:1010900007D1482028F02DF90500134916F0ACFCC3
:1010A00025601248124902680B68D21A0123312ABE
:1010B00004D9623393429B415B42023300220126F2
:1010C0000C4D2E702F78032FFCD101329342F8D1B2
:1010D000036820680B6027F0D9FA43000120184309
:1010E000F8BDC046C0010020FC9B0200D02F0020AC
:1010F000C4010020D02D002030B50D4C87B02378DE
:10110000012B13D10B4B02221D680621002302A8DC
:1011100026F045FC082204A9684628F054F9039BF0
:10112000029A280016F0E4FB0223237007B030BDBA
:10113000D02D0020C0010020A02010B51049C0050E
:101140004B7F5A1C002B09D14C8C0E4BA3430E4CE9
:1011500003510E4B4A775200D05A0FE010335B0018
:10116000CB185C88A123DB00C450092AF1D10120EF
:1011700007F06AFEFFF7C0FF0120404210BDC046E5
:101180000C000020F01F00000C05000080FD020094
:1011900073B5041E09D11A4D2B78002B2CD0194998
:1011A000194820F068FD2C7073BD184D2B1DDE6FA3
:1011B00008F0CAFF164B2100984214D0154B23406B
:1011C000062B05D0A30712D1134B22689A420ED1E9
:1011D00001A920000CF030FD019B012B0CD10078FF
:1011E00023F09AFB0100300020F045FDDCE70B49BD
:1011F0000B4826F096F9A864FFF7D4FED4E7C04662
:10120000CE2D0020C0B502000C0000207C2E002056
:1012100020B60200070080FFA8A50200052A0300EF
:10122000BCE90200F7B5A123A021214AC905DB00D2
:10123000CA500123C27F0D3293401E4A8B50C37F98
:1012400001920133DBB2032B2FD0C37702000300DE
:10125000002122333632198002339342FBD1042419
:10126000C17F154F4D000522EB5D7E195343134A94
:101270007678D3189B190126A640B44662461B799E
:1012800001345B00C3185E8C063516435E840D2C5A
:10129000E9D101220D318A40A023A121DB05C9003B
:1012A0005A50828E01995A50F7BD0023CDE7C046AF
:1012B000F01F00000C050000992903000C0000201D
:1012C00070B5394B8CB01A78022A07D1A022374961
:1012D000D2008A58012A07D003221A70344DAB7FFE
:1012E000002B03D1FFF708FF0CB070BD2800FFF7FB
:1012F00099FF304A304913680968063313608B42FE
:1013000007D300242D4B14601B78012B0FD0022B28
:1013100045D000232A8C6B77FF33FF331A42E1D08C
:10132000E1222749D200012007F05AFDDCE7254ED3
:10133000331DDB6F002B04D033000833DB6F002B31
:1013400002D1FFF72FFEE4E713F0F6FC684613F036
:101350008BFB00280CD11C4B186804F0C3FF040061
:1013600013F0A0FB13F0F2FC2000FFF711FFD0E711
:1013700013F0ECFC019B1549186809F01DFF0028CB
:10138000F2D1019808F0E0FE114B984203D11149C7
:10139000114823F0FCFC019B0024B364E4E70F49EF
:1013A000280020F068FCCCE7D02D00200070004021
:1013B0000C000020B801002008000020CD2D0020E6
:1013C000391100007C2E0020BC01002008E9020039
:1013D000A0E702003F2A030000B90200C0B50200E6
:1013E000F0B5002485B0154D02930AAB1B782E1D75
:1013F000070008350800210001920393F467EC67A9
:1014000004F036FF0E4B019A18600E4BF7671A6016
:10141000029A0D4BE8671A700C4B1C7004F062FFC7
:10142000FFF7B6FE01220A4B1C600A4B1A70039BA1
:10143000A34201D0FFF7DAFD05B0F0BD7C2E0020FD
:10144000BC01002008000020CE2D0020CF2D002060
:10145000B8010020CD2D0020F0B50024384B8FB00E
:101460001D1D0833DC67374BEC6709AD80C90138B7
:1014700001950093052313F06DFB6B68099C0493A1
:1014800007942B7B2E7A05932B7C20000393FFF788
:101490006FFD2D4D002806D103232340022B09D1D7
:1014A0002C40062C06D007AB0022012127480BF068
:1014B000B5FF079007980540062D05D0830730D16A
:1014C000224B02689A422CD108A90CF0B5FB089B6C
:1014D000002B23D0012B0DD1002E0BD1039B002B11
:1014E00008D1007823F018FA07900799380020F007
:1014F000C2FB13E0079807F09FFB079009AB1B7C2A
:10150000002B03D0079800F0D5F90790059B049AAB
:101510000093079933003800FFF762FF0C480FB0C3
:10152000F0BD08F011FE0B4B9842E7D1002E02D11E
:10153000039B002BD9D007A9012004F059FBDCE75D
:101540007C2E0020A89C0200070080FFA8A50200B6
:101550005896020020B6020070B51B4B8AB005AD4C
:1015600040C9013800930195052313F0F3FA059C57
:1015700020000494FFF7FCFC002807D1032323403C
:10158000022B0AD1114B1C40062C06D004AB0022C2
:1015900001210F480BF042FF049003A904980CF0BE
:1015A0004BFB2A7C2B7B03990092059A07F02EFBBC
:1015B0002B7A01000093300000236A68FFF710FFC8
:1015C00004480AB070BDC046D09C0200070080FFEE
:1015D000A8A50200589602000022074B10B51A7009
:1015E000064B02321A70064B064A1B68063B136014
:1015F000FFF7FCFC10BDC046CF2D0020CD2D0020F4
:1016000008000020B801002010B5FFF7E5FF0148F1
:1016100010BDC0465896020010B5042901D8042A0E
:1016200002D9094805F054FA092B01D90748F9E70E
:101630000524614341188A18137101229A40038CD2
:101640001343038410BDC046122A0300262A030058
:10165000F8B548680C000D6808F05EFE0600A0684A
:1016600008F05AFE0700E06808F056FE3A00030052
:1016700031002800FFF7D0FF0048F8BD589602005F
:1016800010B5042901D8042A02D9044805F020FA2B
:101690000523594340188018007910BD122A030011
:1016A00070B5104C050021000F480FF0B9FB210068
:1016B0000E480FF0B5FB21000D480FF0B1FB2100E3
:1016C0000C480FF0ADFB21000B480FF0A9FB2100E7
:1016D0000A480FF0A5FB20F054FB01230848AB7724
:1016E00070BDC04618E00200F0B00200F8B0020081
:1016F00008B1020010B1020020B1020098B002004F
:101700005896020010B50400034B0360403026F0E9
:1017100003F9200010BDC046549D020010B50F4CC7
:10172000200027F01EFB002808D0200027F0C8FA70
:101730000B4B1B68984202D10FF048F910BD3F21B6
:10174000084A138801330B40074909888B42F5D0BA
:101750001188064C13806054F0E7C046C801002091
:10176000D42F0020C02D0020C22D0020D12D00201C
:10177000002210B5044B05491A80054B05481A8014
:1017800027F0F4FA10BDC046C02D00201D17000040
:10179000C22D0020C8010020034B1888034B1B8872
:1017A000C01A431E98417047C22D0020C02D002052
:1017B000084A094B10881988884201D130BFF9E7DF
:1017C00013880649C85C3F21138801330B401380FE
:1017D0007047C046C22D0020C02D0020D12D002012
:1017E00070B504004518AC4205D02178024827F0B6
:1017F0006BFA0134F7E770BDC801002070B5040032
:101800004518AC420DD02378064E0A2B03D10D218A
:10181000300027F059FA2178300027F055FA0134CA
:10182000EFE770BDC801002070B504000825002C4A
:1018300008D02100082C00D929000348641AFFF7BA
:10184000CFFFF4E770BDC046682A030070B50500FD
:1018500004000826002C08D02100082C00D93100F3
:101860000448641AFFF7BCFFF4E72800FFF7DCFF29
:1018700070BDC0465F2A030010B50100014820F08A
:1018800056FA10BD0C000020142313B5064C00932B
:1018900019221821200016F099F9044A0449200061
:1018A00027F020FD13BDC046C80100200000002025
:1018B0000517000010B504000C2022F016FA034BA7
:1018C0004460036001235B42836010BD5C9D0200A5
:1018D00010B5034A0349044823F059FA034810BDE0
:1018E000492B0300223F030000B902005896020072
:1018F00010B5034A0349044823F049FA034810BDD0
:10190000712A0300223F030000B90200589602002A
:10191000F7B5CC1CA400070020000E00019222F0B5
:10192000E4F922000500054B4760866003600C3A2D
:1019300001990C3027F047FD2800FEBDD89D02001C
:1019400010B50C0008F000FC006B00280ED0E30777
:1019500002D50368002B09D0A30702D54368002BEA
:1019600004D0630706D58368002B03D102490348DE
:1019700022F04AFB10BDC0468D2C030054E8020043
:10198000F0B50F008BB00400012138680392FFF717
:10199000D7FF0600012C22D13B68012118000393D8
:1019A000FFF7CEFF80210700490006A825F062FA64
:1019B00080240023089E6400029305AB22003100BE
:1019C00003983D68A847431C28D105980B2800D0F0
:1019D000ACE0029B002B34D159480BB0F0BD7868C5
:1019E00008F09AFC030002900133D5D00125337B27
:1019F000029C2B4200D181E00026210006A825F0A0
:101A000039FA0395002C6ED0210006A825F072FA51
:101A1000011E1ED14B494C4822F0F6FA002810D086
:101A2000029B1B180293844202D9241A3618C4E779
:101A3000802106A8490025F04AFA802406006400A7
:101A4000BBE7029B414807933B7BDB0775D54048CA
:101A500073E000230093220005AB386820F02BFAD6
:101A6000059B0500002B0ED006A8210025F0A6FA44
:101A700005980B285AD1079B0293002B33D106A857
:101A800025F01AFAA8E7844227D8089B30009C4624
:101A9000079C63469B5D039A59B2002912DA19002C
:101AA0001F250222A943C0290CD01900103D013284
:101AB000A943E02906D004329343F03B1A00511E9B
:101AC0008A4104329619A64212D8029B3000013B8B
:101AD0000293A642DDD31C0094E7211A06A825F044
:101AE0006DFA002DD1D11A4806A90BF017FC74E746
:101AF000E443029BA419E418060083E7029906A8B0
:101B000025F0C9F9039B029A0093089905AB386840
:101B100020F0D1F9059B002B0AD006A825F0CCF9BE
:101B2000059B07480B2B00D157E7180005F0B6F9C5
:101B3000337B079005482B4289D106A9D5E7C046DB
:101B400058960200AC2C0300A0E7020058C0020027
:101B5000A8A5020030B50C0087B00121050020685F
:101B6000FFF7EEFE022203A9606808F08FFD049AD9
:101B7000022D06D9A06808F0CFFB049A824200D952
:101B80000200002303990093206802AB20F093F930
:101B9000029B002B05D005480B2B05D0180005F043
:101BA0007DF943000120184307B030BD589602006C
:101BB000F0B589B00191019B040001211868FFF77D
:101BC000BFFE0700012C18D9019B5B685C10631CE9
:101BD00013D0210004A825F04DF9631C03D0631E27
:101BE000002C2FD01C00012104A825F083F9061E2B
:101BF0000AD11B491B4822F007FA0124102104A82E
:101C000025F038F96442E8E70100019803AB0122AE
:101C100000683D68A847431C0ED103980B2809D1E2
:101C2000059B0193012B09D104A825F045F90E4825
:101C300009B0F0BD05F032F900280CD1012104A84B
:101C400025F0BCF93B7B0948DB0700D4084804A910
:101C50000BF064FBECE733780A2BBED1F2E7C04609
:101C6000AC2C0300A0E7020058960200A8A50200D1
:101C700058C00200F0B51F0004000D00160085B02A
:101C80000221FFF75DFE03AB009732002900200020
:101C900020F011F9039B002B05D005480B2B05D034
:101CA000180005F0FBF843000120184305B0F0BD13
:101CB00058960200014B58687047C0467C2E0020A1
:101CC000014B18687047C0467C2E0020F0B5194EB5
:101CD00087B03368050000200C00019322F0D0F893
:101CE00030600090206822F044F9019B07003360C7
:101CF000114E022D03D0A06808F026FA060021003C
:101D000063680831A81E039303F072FF009B0490E0
:101D10000593002203AB0321300004F0B3F9074B15
:101D200004009F4203D0010038001FF0F1FE2000A4
:101D300007B0F0BD7C2E002000BC020058960200C7
:101D40001FB5694604F094FA0400200004F0F2FA8A
:101D5000002802D1044804B010BD08F01BFC002884
:101D6000F3D10248F7E7C046F0B60200E8B6020039
:101D70001FB5694604F07CFA0400200004F0DAFA8A
:101D8000002802D1044804B010BD08F003FC00286C
:101D9000F3D00248F7E7C046E8B60200F0B602000A
:101DA00010B508F055FA034B002800D1024B18007B
:101DB00010BDC046F0B60200E8B6020037B508F024
:101DC000ABFA01AB7F2806D8012118700122180058
:101DD0000BF0DAFA3EBD1E49820988420BD8402139
:101DE00049420A431A703F22024080204042104379
:101DF00058704231EAE7174C010BA0420ED820245C
:101E000064422143197080215F34494222402040BE
:101E10000A43014399705A700321D7E70E4CA04240
:101E200012D81024850C64422C431C703F2580245A
:101E3000294064422A4028402143224320435970CC
:101E40009A70D8700421C1E7044804F041FEC046EE
:101E5000FF070000FFFF0000FFFF1000BA2C030087
:101E6000F0B589B0019204000D0000222F490198BD
:101E700002930DF073FB0090002801D0436800939B
:101E8000012C16D0A4002B19002427000193019BDC
:101E90009D4224D0009B2E68002B04D031001800F6
:101EA00022F06EF80600002C37D137002C6804357C
:101EB000EDE7002404A9286804F0DAF9270003906C
:101EC000039804F037FA051E0CD1002C07D122002C
:101ED000174901980DF042FB00281BD044682000F0
:101EE00009B0F0BD009B2E00002B04D02900180083
:101EF00022F046F80600002C09D03A003100029882
:101F000004F0EEFD0B4B984201D025003E002C0062
:101F10003700D5E7084804F0DBFD3A0031000298AD
:101F200004F0DEFD034B9842C1D1BEE7B6130000BA
:101F30008E110000F0B60200DB2C030037B501A9BA
:101F400005000BF079FE1E4B04002B40062B05D03C
:101F5000AB072AD11B4B2A689A4226D1019920004F
:101F600022F0EEFD0190012822D1207843B2002B0F
:101F700004DB012023785B0018433EBD7F2301343E
:101F800018403F3B034208D13F2223781900914378
:101F9000802905D024F075FEEFE798435B10F1E748
:101FA0008001134001341843EFE7019B012BE0D07F
:101FB000019A0549054811F053FF12F07BFDC04618
:101FC000070080FFA8A50200F42C0300BCE9020072
:101FD000F0B5140087B0029003910022234920003D
:101FE0000DF0BCFA00220500214920000DF0B6FAE0
:101FF00001230400049305931E4F002D07D0686849
:102000001D4B984203D004A90BF016FE07001B4E8F
:10201000002C07D06068184B984203D005A90BF03C
:102020000BFE06000024029B154D9C420AD10023A2
:10203000059A019300933100280007F091FC0E48A7
:1020400007B0F0BD002C07D00023049A0193009341
:102050003900280007F084FC0399A3000022C95826
:10206000280008F089F80134DDE7C046EE150000CD
:10207000F6110000583A030058960200B2490300D6
:1020800000B9020010B5040086B06A4602A810210B
:102090000FF04EFE01222100684608F06DF802A9FB
:1020A00002480BF03BF906B010BDC046A8A50200DF
:1020B00070B50C68E30726D4A30703D1174B226839
:1020C0009A4220D0012820D9486808F025F9060056
:1020D000200008F085F9051C300019F025FA011CD4
:1020E0000F481BF07DFF011C041C281C18F0F0FE9B
:1020F0001BF0E6FB211C18F013FD03230224984378
:10210000084B0443E418200070BD200008F068F973
:102110001BF0D6FB0AF0BCFE0400F4E70CC0020082
:10212000000020410000808030B50B0085B0140015
:10213000012802D9094804F08FFE09480121C2682C
:102140000192019D0022A8472200039003A90120CB
:1021500005F05CFF039805B030BDC046482D030074
:1021600078B2020013B5040008000BF02FF96A469C
:102170000100200003F0FEFF009B0248002B00D16D
:10218000014816BDF0B60200E8B6020037B50024DB
:10219000022800D98C6848680D680BF017F90A4BC3
:1021A0000100002C00D0094B6A4628009847009B8C
:1021B000002B07D001991C00002903D018000EF055
:1021C000E9FB040020003EBDD961000075610000FC
:1021D00070B50400080015000BF0F8F82A000100A3
:1021E000200004F021F8014870BDC0465896020056
:1021F000F8B50326050007003540022D16D10E4B19
:102200000340062B12D0FF23DB05C418B443201C67
:10221000002118F0C9F9002806D080231B06E41815
:10222000B443064B2C43E7183800F8BD38000EF0D5
:1022300065FC0700F8E7C046070080FF00008080CB
:102240007FB50B00012803D10021186807F0AEFF0D
:10225000102102A824F00EFE0C4902A822F0C6FCB0
:10226000032804D10A4825F04FF912F023FC039B00
:102270000193002B03D1042801D10648F3E702A9FA
:1022800005480BF04BF807B000BDC046C12E030057
:1022900028E7020084E50200A8A5020010B504F0BA
:1022A00021F8002804D1034825F02EF912F002FC91
:1022B00010BDC04608E9020010B5022803D0054948
:1022C000054821F0A1FE4A680B20096804F008FCCB
:1022D00010BDC0462E2D030018E802007FB50D4D3D
:1022E0000400A84213D00C4E01220100300007F078
:1022F00043FF0A49300022F089FC04230293084B73
:102300000394DB6902AA0321064801939847280039
:1023100004B070BD5896020000B90200B249030033
:1023200080A70200709F0200F8B50E0000280FD1B0
:102330000400284B1D680021080021F0FFFF002742
:102340000600BD4232D10025AC423ED13000F8BD7E
:102350000868830714D103681F4A93420DD121F006
:10236000F7FC0500306807F0EFFE1C4BC268002444
:102370009A42E0D134680434DDE7194A934201D02F
:1023800007F0E2FE856B002DECD0164B2A689A42CE
:10239000E8D00025E6E7EA68FB009958002904D058
:1023A000042902D0300005F0D1FD0137AB68BB42F3
:1023B000F1D8C8E7A268EB009958002904D0042995
:1023C00002D0300005F0C2FD01356368AB42F1D8A0
:1023D000BCE7C0467C2E002080A702005DAB000059
:1023E00000BC0200B0AA0200F7B50600194D0C00AF
:1023F00028001EF041FE310017481EF0C3FD1748AB
:102400001EF03AFE16481EF037FEFF239B00E6182A
:1024100021787F2901D0A64206D128001EF02CFE8B
:1024200010481EF029FEF7BD6278A37850290CD819
:102430000D48475C0D48405C019300923B00020050
:102440000B481EF09FFD0434E2E70A481EF09AFD97
:10245000F9E7C046262E0300532E03005B2E03002F
:10246000E42D0300022E030019690300C86803006D
:102470007C2E03009F2E0300F0B51D0087B00600E0
:102480001A4817000C001EF0F7FD290018481EF02E
:1024900079FD18481EF0F0FD17481EF0EDFDAD0067
:1024A0006519AC4204D111481EF0E6FD07B0F0BD3D
:1024B0003878A2780490206823780003400E0390B7
:1024C000E0789B060009029020883178C004400E15
:1024D0000190E0789B0E0007000F0090120907485A
:1024E0001EF050FD043401360137DAE7262E0300D2
:1024F000732D0300A02D0300D22D0300042E030032
:1025000037B50400A06803F015FF019000280ED035
:102510006568074B9D4205D001AB002201212800D0
:1025200003F0B0FD08F036F80028EBD001983EBD6E
:1025300058960200F0B50E001100002285B0B71CBD
:1025400003901C0030000D4B0092BF0012F0D2FA35
:10255000380021F0CAFB466006000500039B083FD7
:1025600003600836E719BC4202D1280005B0F0BD6F
:10257000002101CC03F07CFE01C6F4E7FFFF000060
:10258000F8B5070008680C0021F018FE0500606827
:1025900008F000F80600022F0AD9A06807F0BCFE78
:1025A0000200310028001FF078FD24F06AFBF8BD1E
:1025B000004AF6E740420F000023F0B52F4E93B0DB
:1025C000050006A8140033600191012712F04CFAAF
:1025D0002740031E35D1E2062DD56A68A96811206F
:1025E00024F0C2F805002E6829000125019A03A8ED
:1025F00012F020F8A3082B400022310003A802F0BB
:102600005FF9040003200EF0D3F9200021F0B1FCA3
:10261000012040420EF0CCF92C0012F043FA002FBA
:1026200024D029001648FFF7DBF83C0001211448AC
:10263000FFF7D6F81AE0A306D5D5280024F025FE2A
:10264000D0E7012040420EF0B3F9002F03D0012162
:102650000B48FFF7C5F8079807F076FD094908F021
:10266000ABFD041E05D03468002FDFD1200013B06D
:10267000F0BD0799044807F0A3FDF5E72802002004
:10268000C02E030080E9020000B9020010B586B038
:10269000202102A8802424F0EDFB64001E481FF0D6
:1026A00087FB00231D4803931FF082FBFFF780F890
:1026B0000128F3D002280BD119481FF079FB02A89A
:1026C00024F0FAFB01220020164B1A7006B010BD50
:1026D000032802D100230393E8E7042804D0C1B201
:1026E00002A824F027FCE1E70F481FF061FB039BE1
:1026F0000193002B08D10A481FF05AFB02A824F0CE
:10270000DBFB80204000E1E71122012102A8FFF756
:1027100053FF2042C5D0D9E75F2F0300173F0300C6
:10272000582E0300D80000207A2F030030B587B060
:10273000202102A8802524F09DFB6D0037481FF062
:1027400037FB37481FF034FB0024364902A80394B6
:1027500022F04CFA01280AD133481FF029FB02A8C5
:1027600024F0AAFB2000314B1C7007B030BD0228BA
:1027700003D12D481FF01CFBE0E7032801D12A48B4
:10278000E0E7042808D128481FF012FB02A824F033
:1027900093FB80204000E8E7052827D124481FF05C
:1027A00007FB0394FFF704F86B46C1B2DC1D2170F0
:1027B0000329E4D004290AD11B481FF0F9FA0121AA
:1027C000162202A8FFF7F8FE2842BDD0CDE702A8E6
:1027D00024F0B0FB23780D2B03D116481FF0E8FA44
:1027E000E0E701212000FEF7FBFFDBE7039B002B66
:1027F000AAD002A824F08CFB08F05CFD00280BD0C6
:102800000A2102A824F096FB0B4902A822F0EEF957
:102810000328B4D00428ECD10021D1E7C22E030054
:10282000F82E03001E2F0300582E0300D8000020AE
:10283000232F0300532F03005A2F0300F0B5050088
:102840008BB008680C000BF0E1F9049004A81FF0AD
:1028500081FC00260127049B03900693069B1978B0
:1028600000291AD1300003F0C3F90122070007A99B
:10287000606807F00BFF079B089A05939B1801936C
:10288000022D1FD9A06807F047FD002817DA089B22
:10289000C01814D5284804F01BF9080006F016FEED
:1028A000002806D006A81FF067FC069B1B78732B38
:1028B00000D13800069B361801330693CEE7059BFE
:1028C000181805900025B54202D338000BB0F0BDB2
:1028D000049B0124187806F0F9FD002803D004A811
:1028E0001FF04AFC04000598019A03199A42D1D3BB
:1028F000049B1B78732B10D02D19AB000293049B03
:10290000013C14D3197805AA039804F00FFF029A2A
:10291000A300D31AFB185860F1E721000AF04CFD20
:10292000059B1C19AB1C9B0005940135D851049BD9
:1029300001330493C7E7C0467D2F0300F0B589B08B
:10294000039101921E000BF061F9049004A81FF09E
:1029500001FC00250290B54201D309B0F0BD049BF3
:1029600018780028F9D006F0B1FD0124002803D022
:1029700004A81FF001FC0400039B019A1B199A4252
:1029800002D21B4804F0A4F8049B1B78732B10D0D0
:102990002D190E9BAF00DF19049B002C24D0A20040
:1029A00052421978BA5803AB029804F01FFF013C59
:1029B000F2E70E9B6F1CAD00E858012205A907F055
:1029C00065FE069DA54200D925002A0005990398B9
:1029D00026F0F9FC039B621B58193D00002126F0EC
:1029E0000EFD039B1C190394049B01330493B2E76F
:1029F0007D2F0300F0B50E0089B0039001CE0F00CB
:102A00001FF0D0FB4410210004A824F044FA069DD6
:102A100022000021280026F0F2FC039B0096013BD7
:102A20002A1929003868FFF789FF04A902480AF02B
:102A300075FC09B0F0BDC04658C0020030B50C00AE
:102A400089B005000222606805A907F01FFEA06892
:102A500007F062FC002806DA069B0393C01802D533
:102A6000084804F035F80599069AEB1E8A180918EB
:102A700020000C3000902068FFF760FF024809B08A
:102A800030BDC0467D2F03005896020070B515007A
:102A900004001FF0F9FB2A00024920001FF0B2FBDE
:102AA00070BDC0466B22020070B543790D00002452
:102AB000032B06D9836A074C9200E41AC369D358E2
:102AC000E41803211FF0D1FB4470241205708470B8
:102AD00070BDC046FD7F0000F7B5002304006171A2
:102AE00083608371E260036101330F00150043616D
:102AF000032906D80121836949429A00C06926F05A
:102B00007EFC0023A3622362AA8BEB8BD218002ADF
:102B100000D10132384E200031001FF073FB2A8CA7
:102B2000310020001FF06EFBE3682000197D1FF0CC
:102B300095FBE3682000997D1FF090FBE36820007F
:102B4000197E1FF08BFBE3682000997E1FF086FB47
:102B5000042F27D1636A226A31009A1A20001FF0DD
:102B600051FB3100EA8920001FF04CFB3100AA899B
:102B700020001FF047FB0026AB8CB34217DCFF217F
:102B800020001FF081FB042F35D1EA8A2B8B0237FE
:102B9000D31801930023019A9A422CD0AA8C0021C9
:102BA000009223E0022120001FF04BFBD9E7AA6A24
:102BB000F300D3181A78032A03D1997820001FF064
:102BC00063FB0136D8E70126A86ACA00821850784C
:102BD00030420AD05088984207D15268D200606BC8
:102BE00099003A430A500133D5E70131009A8A42ED
:102BF000E9DC0222F2E7F7BD43220200F7B5234BDE
:102C00000500A8331B680191022B0DD847698F423C
:102C10000AD2836A0269CF1B9C1A3B00234304D16A
:102C2000AB6A2B61019B6B61F7BD062F01D90F2C9D
:102C300018D900941F2C01D91F230093009B002654
:102C40009C4203D83E00032F00D90326012128000F
:102C50001FF0F7FA009A730113430370009BBF1B28
:102C6000E41ADAE70A4B3E009F4200D91E00022117
:102C700028001FF0E6FA702233091340F03A22438D
:102C80001343037046700094E8E7C0467C2E002092
:102C9000FF07000070B50D00012104001FF072FB5A
:102CA0000E2D14D00F2D17D010210D2D10D017215F
:102CB00020001FF0E9FA0322A36A0421033393439F
:102CC000A36220001FF0D1FA044B036003E011213E
:102CD00020001FF0D9FA70BD1221F9E778C2020076
:102CE000F8B5174F05000C0016000F40002A1AD146
:102CF00011001FF047FB23040FD5322128001FF0DD
:102D0000C3FA322128001FF0BFFA322128001FF039
:102D1000BBFA322128001FF0B7FA3A00352128000B
:102D2000FFF7C2FEF8BD3A004621FFF7BDFE7F2344
:102D3000210A99433143C9B228001FF0A5FAF1E7EF
:102D4000FF7FFFFF10B5040008001FF012FF030013
:102D5000002C03D0012C06D0002003E00348002BF8
:102D600000DC034810BD40002043FBE7F0B6020042
:102D7000E8B6020043684B6083688B60C368080054
:102D8000CB60014B0B60704750A4020030B50400CB
:102D900087B00D000020042A25D120001FF0E9FE95
:102DA000AB0722D1184B2A689A421ED103AA2900E8
:102DB000FDF72CFC102020F098FF144BE268036014
:102DC000039B616853435B184360049B61680193F4
:102DD00053435B18059983604A43C260002902DAB5
:102DE000E2689B1A836007B030BD002301002A000F
:102DF000206807F069FBE36858436368C018012343
:102E000040001843EFE7C0466CAD020014A4020076
:102E1000F0B50E00002785B0110003901D000122BF
:102E200003233000009711F065FE102020F05DFFB5
:102E3000039B0400036001234760C36028689E422F
:102E400005D107F069FAA060200005B0F0BD07F0D9
:102E500063FA6060686807F05FFAA060032EF3D140
:102E6000A86807F059FAE0600028EDD1014803F0A6
:102E70002FFEC0468E2F030070B50D004A688B6888
:102E80000849040021F083FFEA68012A04D10649B9
:102E9000200021F0BBFE70BD0449200021F077FF27
:102EA000F9E7C046982F0300993C0300A52F0300C3
:102EB000136810B51400002B05D1B02904D1406867
:102EC00023F0DFFE206010BDBF235B00994201D1DB
:102ED0008068F5E7024B9942F5D1C068F0E7C0463B
:102EE000CB02000010B5024B67221FF015FF10BD8A
:102EF0003736020010B5024B97221FF00DFF10BDB0
:102F000015410000F7B50F0011001A00C38A85793A
:102F1000868A019300230400837143610F4B1FF0E5
:102F2000FBFEA368002B17D1E18A002908D0A38AF1
:102F3000002B05D1206B1FF0FCFC206B1FF079FBF0
:102F4000A38AE28A390020001FF097FE6B1E9D4184
:102F5000019BA571A682E382F7BDC046313D00000A
:102F600010B54379C26A012B03D1100022F0CBFFC8
:102F700010BD0B00006B024922F0EFFFF8E7C046DE
:102F80009CA302007FB50B7804000D004E1C002BA3
:102F90000AD0032B0BD103A9280024F024FC0399A9
:102FA0000600206B1FF0DCFA300004B070BD012B6E
:102FB00007D18E1C49780429F6D0006BFFF76AFE12
:102FC000F2E7042B0BD14B788978006B0902194387
:102FD0001FF00EFB280024F041FC0600E4E7052B5F
:102FE00015D14379042B04D02649006B1FF00CFB4C
:102FF000F0E788784B780002184303A923F070FDAE
:103000000399246B0AF0D8F901002000EEE71A00BA
:103010000A3A0F2A09D803A928001FF002FE0399D3
:1030200006002000FFF79CFFBEE7082B0CD103A988
:10303000280024F0CEFB039B226A9B0006009958CF
:10304000206B1FF0E1FAAFE703AB02AA01A9280049
:1030500024F035FC05000299206BFFF7CFFD019BA2
:10306000094A9B009B582900039A20009847A368AF
:10307000002B04D0E368002B01D1029BE360039E88
:1030800092E7C046589602008CA40200F7B50600ED
:103090000192FFF777FF04270500019B9D4200D1B5
:1030A000F7BDA91C30006C78FFF76CFF2F3CE4B231
:1030B00005003900082C01D8024B195D306B1FF058
:1030C00016FCEAE7AB2F030010B54379C26A012B67
:1030D00003D1100022F028FF10BD0B00006B024945
:1030E00022F03BFFF8E7C046ACA3020010B54379DD
:1030F000C26A012B03D1100022F016FF10BD0B0095
:10310000006B024922F029FFF8E7C0468CA30200B9
:10311000836870B504000D00002B09D1110005482B
:1031200024F0FFF9A060200029000C3020F016F8F0
:1031300070BDC04644E9020010B5024AFFF7E8FF3F
:1031400010BDC046F3320300F0B504000D00E1628B
:10315000002162712B7891B0059201619F4A072B83
:103160003BD1059B012B06D00200836B08321B6804
:103170000599406B9847AB681800089324F06EFBE4
:1031800063790890032B0FD10D9040210DA824F0F6
:103190007EFBA36B02009B680D99606B9847A36848
:1031A000E882002B00D0D4E0089824F057FB089068
:1031B0000378002B4FD00A3B0F2B47D80DA91FF0E7
:1031C00030FD98220D9B9200934244D00AD80125ED
:1031D000483A93420DD0824A08992000FFF798FFA1
:1031E00011B0F0BD7F4A934202D07F4A0325F0E739
:1031F0000025089824F032FB1821089008A824F034
:1032000046FB089B07900693069B079A934224D19E
:103210006379012B15D9A36B29005B68606B984714
:103220006379042B0DD10023E06A03950293C18AD0
:10323000626B0191009393680521D268006909F0DF
:103240008DFDA368002B00D083E0C9E70100674A29
:103250002000FFF75DFF0225CBE7069B08931B7854
:10326000222B04D1069824F0F9FA0690CCE71F2B04
:1032700001D05F4AB0E709A9069824F0F9FA03786B
:103280000600432BF5D124F0E9FA099B9842F0D1CE
:1032900009A9300024F0ECFA037807000A3B0F2B51
:1032A000E7D824F0DBFA099B06008342E1D00378DB
:1032B000472BDED124F0D2FA099B9842D9D10AA932
:1032C00038001FF0AEFC300024F0CDFA9F210B90A7
:1032D0000BA824F0DCFA01000B9824F0B3FA9E222C
:1032E0000A9B0600920093421BD1012804D10B983F
:1032F00003780A3B0F2B01D93E4A6DE72669731C00
:103300002361059B012B21D00DA91FF08AFCA36B23
:103310000D9ADB683100606B9847002816D1364A59
:103320005AE7364A93421AD1012803D10B98037801
:10333000032B01D0324A4FE7059B012B06D0666B69
:1033400024F060FA0100300023F0FEF8A368002B9F
:1033500088D0200008990C301FF000FF40E78C2235
:103360009200934222D1012803D90B980378032BB2
:1033700001D0244A30E7059B012BE7D00CA924F0AB
:1033800032FA01270B900B980378032B01D01E4AC9
:1033900022E70DA924F027FA01370B900D9A0C991A
:1033A000606B23F0D8F8BE42EDD1CFE7059B012B2F
:1033B000CCD0032800D95CE70B9B18000D9324F0B8
:1033C0004DFA0E9024F04AFAA36B0F901F69320059
:1033D0000DAB0A99606BB847B8E7C046E831030007
:1033E0000C3203009D020000E602000019320300C7
:1033F0004132030064320300803203000B020000FC
:1034000090320300AC320300D1320300F0B587B034
:1034100001920A000593531E9A410D00060005997A
:103420000198049224F00EFA2C1E039009D02B78F8
:1034300000243A2B05D102002100306B1FF0EAFA7C
:103440002C00049B019F0293059B9F421ED1002CE0
:103450003BD1039A049B944663441900306B1FF0E0
:10346000CDFA002D3ED1019B9F422CD0019B9C4266
:103470003BD1200024F0F7F900220100300000F0D9
:1034800039F8019824F0EAF90190ECE73B783A2BFF
:103490000CD1002C12D1049B306B5A1E039B3C00B4
:1034A000D218029BD21A19001FF0B4FA380024F087
:1034B000D5F9029B070001330293C5E70C4A390096
:1034C0003000FFF725FE07B0F0BD002DCBD0AC4299
:1034D00008D1200024F0C7F900220100300000F0DC
:1034E00009F8C0E700222900F8E700220199C5E7A2
:1034F0001E300300F0B50B7817001A000A3A85B0A9
:1035000004000D000F2A10D803A928001FF089FB22
:1035100003992000002F01D0022F03D1FFF7D4FD23
:1035200005B0F0BDFFF71CFDFAE76A4A192B00D879
:10353000CBE01A3B2A2B00D182E005DC062B08D019
:10354000292B11D0644AC0E02B2B00D194E0972B9B
:10355000F8D1002F00D0B7E003A9280024F088F9A3
:103560000200039B00219BE002A9280024F080F9BF
:103570000600022F03D001002000FFF703FD3000FA
:1035800024F06CF9029906001FF040FB0028D9D105
:103590003378A22B13D1300003A924F069F9060077
:1035A000300024F05BF9039A0190904207D2022F79
:1035B00003D031002000FFF7E5FC019EF0E73378EF
:1035C000482B21D1022F06D1206B1FF0BDF8206BB4
:1035D0001FF079F80EE0300024F045F901002000DA
:1035E000FFF7D0FC206B012FF2D11FF081F8206B88
:1035F0001FF051F8300024F031F902991FF006FB5A
:10360000002800D08CE79DE7492B9BD1300024F0A7
:103610002AF903A91FF005FB012F07D1206B1FF02A
:103620005DF80399206B1FF00EF8E3E7022F02D13B
:10363000206B1FF072F80399206B1FF037F8D9E761
:1036400003A9280024F014F9039906001FF0DEFAFC
:10365000002800D076E7002F36D1350003A92800D6
:1036600024F006F9060024F0F9F80378A92B1BD101
:1036700000231A00310013E0002F25D103A92800F0
:1036800024F0F6F8039905001FF0C0FA021E02D0DC
:103690003B003A0066E72B78A62BDFD00300290019
:1036A0002000FFF7B3FE3BE7AA2B05D103A924F0C6
:1036B000DFF8039B0200DDE7C12B00D142E724F0D5
:1036C000CDF8320003004DE7044A29002000FFF73F
:1036D0001FFD25E7BF2F0300D72F0300F22F0300A4
:1036E000F0B5170085B0040008000D0024F0B6F80E
:1036F000390006001FF08AFA019000281ED02379B5
:10370000002B16D0E36A1E78002E12D13749200014
:10371000FFF726FC29002000FFF734FC33003200BD
:103720000121206B1FF0B4F9206B1EF0EBFF05B0F8
:10373000F0BD29002000FFF725FCF5E733786D2B5D
:103740001DD1290001222000FFF7D4FE300024F013
:103750008AF84378811C4E3BDBB218260A2B01D82D
:10376000234AD65C2000FFF70DFC3100206B1FF0D0
:10377000BEF8022229002000FFF7BCFED7E76E2B1F
:103780002ED1300003A924F073F806000700039B34
:10379000BB421FD101992000FFF7F4FB206B1EF004
:1037A0009DFF002229002000FFF7A4FE019BB342E9
:1037B000BDD0300024F052F8019B0500834202D0B6
:1037C000206B1EF08BFF310000222000FFF792FEDD
:1037D0002E00EBE7380024F041F801970700D6E708
:1037E00031002000FFF7CEFB019AC3E70102000081
:1037F000B42F0300F0B50B788FB00A3B04000191A1
:1038000003920F2B00D906E1080024F027F8037873
:10381000432B00D0FFE0019824F020F80BA924F0FE
:1038200027F8037842780A3B1B021343A14A9342CC
:1038300000D0F0E024F012F803780500472B00D008
:10384000E9E024F050F8002800D0E4E0280024F05B
:1038500005F80B9B984200D0DDE0280024F003F827
:103860009F210C900CA824F012F80C9B07000293E7
:10387000012302980D9323F0F1FF05000C90B8424C
:1038800000D1BDE023F0EAFF0C90B8420ED00378DF
:10389000032B00D0BFE00DA923F0A5FF0D9B0C90DA
:1038A000002B00D1B7E0B84200D0B4E0029B1B78F7
:1038B0004533DBB2022B00D8ADE02B784533DBB2C9
:1038C000022B00D8A7E00B9B1800059323F0C6FF3E
:1038D000039B0700984200D100270D9B26690493A3
:1038E000238B26830693638B0793E38B0893731CC8
:1038F0006383A38BE383331D23612B78D91E03934A
:103900000B00591E8B410993039B032B03D0290005
:103910002000FFF737FB02992000FFF733FBF11C73
:10392000206B1EF026FFB11C206B1EF0E5FD206B06
:103930001EF0D4FE002201992000FFF7DBFD05995F
:103940002000FFF71FFB711C206B1EF0D5FD0499B2
:10395000206B1EF005FE1221206B1EF0C8FF206BAD
:10396000F11C1EF0C9FD039B206B032B4CD01EF0F5
:10397000BFFE206B1EF0D1FE049B206B1921002B93
:1039800000DA1A2100251EF0B2FFB21C0121206BC3
:103990001EF0FBFE069B2383079B6383089BE38348
:1039A000AF4218D0206B1EF0ADFE039B032B02D05C
:1039B000206B1EF0A7FE39002000FFF7E3FA25690F
:1039C000206B6B1C290023611EF0D3FE0999206B2C
:1039D00001311EF0D7FC3100206B1EF08DFD206BF5
:1039E0001EF090FE039B032B02D0206B1EF08AFE7C
:1039F000002F03D02900206B1EF07EFD0FB0F0BD1C
:103A00002D4B029D029351E71EF068FE2900200015
:103A1000FFF7B8FAB0E7238B25690293638B6E1C1E
:103A20000493E38B66830593AB1C0693A38B0198E9
:103A3000E383224B2B432383EB1C236123F00EFFF4
:103A400001002000FFF79EFA07000121206B1EF005
:103A5000EDFE3100206B1EF04FFDA91C206B1EF007
:103A6000F8FE002201992000FFF744FD39002000F4
:103A7000FFF788FA0700206B1EF07FFC002803D1B7
:103A80003100206B1EF075FEA91C206B1EF034FD6A
:103A9000206B1EF0EAFE029B2383049B6383059B3D
:103AA000E383039BBB42A5D039002000FFF76AFAED
:103AB000A0E7C046AE020000658903000080FFFF5A
:103AC000F0B589B005000591049200930191002999
:103AD00004D09F2105A823F0DAFE019000231E00E8
:103AE0001F00059C03930293019BA3421AD1002E51
:103AF0000DD0029B002B00D079E0286B1EF099FDC1
:103B0000039B002B00D077E0286B1EF092FD049BF6
:103B1000286B002B00D174E033003A0000991EF0AE
:103B2000C0FF0AE02378BB2B14D1BA3B1E4206D05B
:103B3000374A21002800FFF7EBFA09B0F0BD012356
:103B400020001E4323F08FFE0290200023F086FE0B
:103B50000400C9E7BC2B0BD1BA3B1E4201D02D4A51
:103B6000E7E7022320001E4323F07DFE0390ECE7ED
:103B7000BD2B2AD1200023F076FE040023F06EFE38
:103B80000378C12B0BD12800062221001FF054F925
:103B9000009B20000133009323F060FED6E72378DA
:103BA0000A3B0F2B01D91C4AC3E707A920001FF0CD
:103BB00038F804000799286B1EF01AFD2100280030
:103BC000FFF7E0F9013704008EE7002E01D0134A19
:103BD000AFE7002F01D0124AABE721002800FFF722
:103BE000D1F9009B0400013300933E007CE7029969
:103BF0002800FFF7C7F983E703992800FFF7C2F908
:103C000085E733003A0000991EF042FF95E7C04671
:103C100010330300273303003F33030060330300F6
:103C20007B330300F0B589B00400039103A83D2164
:103C300023F02DFE0027E36A02905E7D0398029B2D
:103C4000984215D1180023F00EFE029B03901B78BA
:103C50000100320020001D2B59D11FF098F80500FB
:103C6000013F57D229002000FFF72EFA09B0F0BD1E
:103C700005A923F0FDFD6821039003A823F007FEAA
:103C800006A9050003981EF0CCFFA223069AFF3375
:103C900001909A4213D003992000FFF773F901377E
:103CA00003900398A84229D1059928001EF0AEFF81
:103CB00000280CD129002000FFF764F907E0019BE0
:103CC0009D4207D8174A00212000FFF721FA059BE3
:103CD0000393B3E7019823F0C1FD8542F2D107A910
:103CE00001981EF09EFF079B0F4A934204D00F4A93
:103CF0009342E7D10426EAE70126E8E707A91EF088
:103D000090FF07990390206B1EF09DFCC9E71FF000
:103D100088FAA4E7002301211A00206B1EF0B8FEE8
:103D20009EE7C046D73003001D02000012020000CB
:103D3000F7B50A780E00130008215D3B8B43DBB218
:103D40000400002B02D101338371F7BD13005E3BE9
:103D50008B43DBB2002BF8D013000A3B0F2B2FD97B
:103D60005C2A11D101A9300023F082FD070023F065
:103D700075FD019B834205D023F070FD019B05007A
:103D8000834208D1002506E0300023F06CFD0700D7
:103D900023F064FD050001A938001EF042FFA3795D
:103DA000002D02D02A78002A0CD1002BCDD1E38A35
:103DB000002BCAD0184A31002000FFF7A9F9C4E748
:103DC0003700DFE7002B1ED0A38A01339BB2A3820A
:103DD000012B09D1E18A206B002911D01EF0A9FD29
:103DE0000021206B1EF0BFFD29002000FFF7CAF85C
:103DF000206B01991EF0FCFB206B1EF0C0FDA4E7B8
:103E00001EF017FCECE7E38A29000133E38220006F
:103E1000FFF7B8F899E7C046F5300300F0B50400A5
:103E20000E00056987B002936B1C0393AB1C036102
:103E30002900006B17001EF0D6FC20001EF0F9FED2
:103E400031002000FFF79EF8206B1EF014FD691C66
:103E5000206B1EF08EFC2900206B1EF04DFB206BAA
:103E60001EF063FE2669731C2361029B9F4218D1DA
:103E7000A38B206B013BA3831EF0CDFC206B1EF0B7
:103E800059FE0399206B1EF037FB0C9B002B03D0CF
:103E900019002000FFF776F83100206B1EF02CFB94
:103EA0001BE0380023F0DFFC0023059323690500A5
:103EB0000193013323610378002B10D123F0CEFC52
:103EC00023F0CCFC029B984224D03C4A29002000DD
:103ED000FFF71EF9A38B013BA38307B0F0BD0700DA
:103EE0008B2B07D123F0BFFC070023F0B7FC05A9FB
:103EF0001EF097FE206B1EF0F1FB39002000FFF74B
:103F000041F82121206B1EF0F2FC019A0021206B68
:103F10001EF03BFC280023F0A1FC059907000029B6
:103F200048D1206B1EF0EEFB0025059BAB4209D06B
:103F30002569206B6B1C236129001EF060FC2000AA
:103F40001EF077FE39002000FFF71CF8059B0700E4
:103F5000002B02D0206B1EF08EFC206B1EF0B0FCFC
:103F6000059B002B19D00E21206BFEF793FE290034
:103F7000206B1EF0C1FA0E21206BFEF78BFE059917
:103F80002000FFF7A1F820000599FFF7AFF8A38BF9
:103F9000206B013BA3831EF03EFC3100206B1EF022
:103FA000E8FB0199206B1EF0A7FA0121206B1EF09F
:103FB000E9F95AE72000FFF787F8B5E79D330300DA
:103FC000F0B587B0039143790400012B07D1C36A90
:103FD0000D001B78002B04D1194AFFF799F807B0A0
:103FE000F0BD692103A823F052FC02900398029BC4
:103FF0009842F4D005A90B271EF013FE059B0390F1
:10400000019302ABFF183A000199E06A23F01FFA0E
:104010003B780600002B0DD0019A0100E06A23F0E6
:1040200041FA3378074A002BE0D129002000FFF73E
:104030006FF8DBE70378042BD8D0034AF5E7C046D6
:10404000423103006731030085310300F0B587B0CA
:10405000039144790500012C09D1019103A869213C
:1040600023F015FC02900398029B984201D107B0FF
:10407000F0BD05A90B271EF0D4FD02AB059EFF186D
:1040800003903A003100E86A23F0E1F93B78002B15
:1040900008D10378012B05D0074A01992800FFF7C2
:1040A00037F8E0E704703100E86A23F0F2F90028FD
:1040B000D9D00470D7E7C0462331030010B5084BB0
:1040C000428B04009A4202D1064AFFF721F8A28BE4
:1040D000E38B618BD21A206BFEF702FE10BDC04647
:1040E000FFFF0000BF30030010B5084B028B040037
:1040F0009A4202D1064AFFF70BF8A28BE38B218B81
:10410000D21A206BFEF7ECFD10BDC046FFFF000089
:10411000AA300300F7B50B7804001A000A3A0E0023
:104120000F2A08D801A930001EF07BFD019920005C
:10413000FEF7DCFFF7BD432B44D16946300023F086
:1041400097FB01002000FEF71DFF03780500A22B5E
:1041500010D101A923F08CFB0500280023F07EFB81
:10416000019B0700834205D029002000FEF70AFFCB
:104170003D00F2E72B78482B16D1280023F073FB83
:1041800001002000FEF7FEFE0500206B1EF0E6FA9F
:10419000009928001EF03AFD0028CBD1214A3100B9
:1041A0002000FEF7B5FFC5E7492BF7D1280023F023
:1041B0005AFB01A91EF035FD01990500206B1EF088
:1041C000B6FAE5E7442BE9D1080023F08CFB002880
:1041D000E4D1300023F047FB060023F044FB050048
:1041E00001002000FFF796FF280023F037FB03783B
:1041F000A92B9FD0AA2B0ED101A923F039FB019B3B
:104200000500834296D020002900FFF783FF280095
:1042100023F024FBF3E7C12BC0D001002000FFF7FF
:1042200079FF87E738300300F7B502260D00C16A31
:104230000400097D314005D0344A29002000FEF7F2
:1042400067FFF7BD0191297808000A380F281DD8AB
:10425000280001A91EF0E5FCA279E36A002A03D038
:104260001A8B01321A8302E0DA8A0132DA820126DD
:1042700001990029E5D06B46DF1C3A00E06A23F083
:10428000E6F83B78002B3CD1214AD6E71A3291421E
:1042900004D1280023F0E7FA01A9DBE71A33994299
:1042A00023D1A379002BC7D101272800A77123F0C0
:1042B0001AFB03260028DBD1280023F0D4FA027869
:1042C000E36A0A3A0F2A09D828001A7D17431F7596
:1042D00023F0C9FA01A91EF0A4FCC9E71A7D280041
:1042E00017431F7523F0BFFAF2E7280023F0BBFA4B
:1042F00001A91EF096FCE36A1A7D16431E75052679
:10430000B6E70223467003709BE7C046C031030046
:10431000CF310300C36A70B51B7804000D00072B72
:1043200004D00C4A0021FEF7F3FE70BD11002800F6
:104330001EF06CFC002807D00E21206BFEF7AAFCB3
:10434000206B1EF0B8FBF0E729002000FEF71AFEF4
:10435000F6E7C046A6310300C36A70B51B780400B7
:104360000D00072B06D0022B04D0174A0021FEF7C0
:10437000CFFE70BD110028001EF048FC061E07D0BD
:104380000E21206BFEF786FC206B1EF0AFFBF0E7E2
:104390002B78C42B12D1280023F065FA01002000ED
:1043A000FEF7F0FD3100206B1EF040FA206B0E216D
:1043B000FEF770FC206B1EF0A8FBDAE72900200056
:1043C000FEF7E0FDE0E7C046BC330300F0B50D00AA
:1043D00085B00400110028001EF018FC071E05D04F
:1043E0000021206B1EF0BFFA05B0F0BD2B784E2BDC
:1043F0000BD1206B01211EF0B6FA29002000FEF738
:10440000C1FD206B1EF0BBFAEEE7B32B61D1280093
:1044100023F029FA050023F021FA02900378B62B45
:104420004DD103A923F024FA039B0290984203D0B4
:104430009D2102A823F02BFA2B784E2B20D1039933
:104440000298266B23F0FEF9411C30001EF08BFA17
:1044500029002000FEF796FD206B1EF090FA012740
:10446000029E039B9E4210D1002FBDD131000298C5
:10447000246B23F0E7F9411C20001EF08BFAB3E710
:1044800029002000FEF77EFDEAE7337831002000A6
:104490000193FEF777FD019B0600002F0BD04E2BFA
:1044A00005D00F4A29002000FEF732FE9CE7206B62
:1044B0001EF065FAD5E74E2BD3D10A4AF2E72B78E6
:1044C00004224E2B00D00522290020001EF0B4FC4F
:1044D0008AE729002000FEF755FD0121206BCCE77B
:1044E0005030030073300300F0B504000D000026C7
:1044F00062711100C56206612A0087B0006BFEF789
:10450000EBFA6279012A01D1EE832E84AE6833780A
:10451000542B0AD1300023F0A6F901002000FEF749
:1045200031FD206B1EF0C7FA2AE02B78002B08D152
:1045300031002000FEF726FD0E21206BFEF7AAFBBE
:10454000EFE7072B21D1300023F088F963790500CC
:10455000012B07D100230100A37140225F4B2000F3
:104560001EF0DAFB280023F079F923F077F9010037
:104570002000FEF707FD206B1DF0FFFE0028DBD0BA
:10458000206B1DF0CDFE07B0F0BD022B17D1012A24
:1045900007D100234732A3713100514B20001EF098
:1045A000BBFB300023F05AF901002000FEF7EAFCC3
:1045B0002B7D5B07B5D5206B1EF0A4F8BCE7033B51
:1045C000032B50D8300023F049F905A923F050F906
:1045D00023F044F967790390012F09D10B2202AB34
:1045E000D2183900E06A22F032FF02230370EF8212
:1045F0002B78032B20D10021206B1EF0A7F92B78FC
:10460000062B27D1206B1EF014F801212000FEF7A5
:10461000A7FC206B1EF00DF8206B1EF00AF800239B
:10462000059A00930399330020001FF0B9F82B7806
:10463000062B00D075E77FE7042B04D10021206B07
:104640001EF091F9DBE7052BD9D10021206B1EF07C
:10465000A1F9D4E720000121FEF782FC0121206BA3
:104660001EF0E4F8DBE7012A07D1EA2105AAFF31B1
:10467000280022F0ECFE0223037005A9A8681EF0B2
:10468000D0FAFE2120004900FEF76AFCFC21200040
:10469000FF31FEF719FDE989206B1DF0A9FF80218C
:1046A00020008900FEF710FDA86823F0D7F823F05A
:1046B000D5F801002000FEF765FCEA212800FF3153
:1046C00022F0B5FE0378022B00D135E7EA214288BB
:1046D000FF31206B1DF064FE23E7C046C1330200AA
:1046E000B5330200F8B5164B0400A8331B6816005A
:1046F000002B24D1056901226B1C03612B001EF0E5
:10470000D5FFCA210700FF31206B1DF076FE310076
:1047100038001EF07BFA061E09D139002000FEF792
:1047200031FC330032000121206B1EF0B1F9012170
:10473000206B1EF0CDF92900206B1DF0DDFEF8BDC9
:104740007C2E0020F0B585B005000E000192FEF72A
:1047500019FC03780400A22B03D101A923F088F8E7
:104760000400EB6A1B78072B00D070E03378727876
:104770000A3B1B021343504A934268D12378472BCC
:1047800065D1200023F0AFF8002860D0EA2128008E
:10479000FF31FEF7E5FB0121EA6A936A928C002A59
:1047A00006D1464A21002800FEF7B2FC05B0F0BD54
:1047B0005878084211D059682800FEF7D1FB0199BA
:1047C000200023F03FF802280ADC0023286B1A009F
:1047D00002211EF05DF9200036E0013A0833DEE7E1
:1047E000200023F03BF80378492BEED1200023F082
:1047F00035F823F033F80378472BE6D1200023F077
:104800002DF8070023F02AF80600380023F02BF8D3
:1048100003A91EF006FA03990122286B1DF01FFF61
:10482000300023F060F80021884203D1300023F0EB
:104830001AF80100002301222800FFF741F92000A7
:1048400023F00CF823F00AF823F008F80400019B89
:10485000A342ABD0200023F001F8019B0600834265
:1048600024D02378492B21D10378472B1ED1200057
:1048700022F0F9FF0700300023F035F80024A042B1
:1048800003D1300022F0EFFF040003A938001EF02E
:10489000C8F900220399286B1DF0E1FE28000023CF
:1048A00001222100FFF70CF93000CDE7210028009C
:1048B000FEF768FBCAE7C046D3020000923003004F
:1048C000F0B59BB01500069038220F000CA800210F
:1048D0001E0024F094FD069B0BAC5B680B972362D3
:1048E00001235B421193069B2671186822F0B6FFE4
:1048F00022F088FF606280001FF009FA0022A062A7
:1049000000950025069B11001B6820001EF09BF9F6
:104910001DF0F0FC2B00039020630495626A07925F
:10492000954202D2A268002A41D0002B5DD10593A6
:10493000059A079B934202D00D9A002A58D00499F9
:1049400003981DF0DCFC0025149A0D9B05929542FE
:1049500000D213E1002B0CD0169B0EA899681EF014
:10496000FDFB169B0E9A0493DB890B990D980FF0B3
:10497000E3FA03981DF0CBFC1898002801D021F031
:1049800069FB0024069822F0B8FF159B1B681D697F
:10499000149B159803939C4200D219E11FF0D4F99F
:1049A0000D99002900D11BE1080010F083F8A16ADD
:1049B000AA005658002E13D03269002A10D121F0D7
:1049C0009DFB737D3061012231002000042B09D151
:1049D000FEF7BAFB2369049A9A4200D2049301239A
:1049E00001359BE7FFF780FDF4E700231D0095E705
:1049F0000599159B8900CB58002B37D00120998C45
:104A00008C46197D01421BD06446601EC000002CFC
:104A100016D00226996A09184D78354229D0002A05
:104A20000ED00F005088167808905068557809907D
:104A300011CF11C2089A0E704A80099A4D704A60CF
:104A40000021EA249983FF348C451ADC00218C452F
:104A500035DC5E68002E09D00021B28C09920A0074
:104A6000099881423BDB0020824263D1059B0133E0
:104A70005DE7002A02D1012D00D10A00013C08386F
:104A8000C5E7986ACA0082181878012804D15068CE
:104A9000A04208D10131D7E71578012803D9002DAC
:104AA00001D1012010701078022803D00125507820
:104AB0002842EFD0988B451C9D835080EAE7986A86
:104AC000CA0082181078032807D1012450782042A8
:104AD00003D1988B5080001998830131B7E7B06AF1
:104AE000CD004019089000780338012812D800241E
:104AF0000EE09F6AE00038180778042F07D1089D60
:104B00006F683D004768BD4201D1428001320134E7
:104B1000A445EEDC0131A3E79C6AC10061180C7862
:104B2000042C03D101254C782C4202D04C88A418C7
:104B30004C8001308445EFDCD98A92B25118D98279
:104B4000998B52189A8391E7039B022221000BA8AC
:104B50001793FFF7C9FC0D9B0593002B04D103228B
:104B600021000BA8FFF7C0FC0D9B0593002B2DD156
:104B7000042221000BA8FFF7B7FC27E0002B00D090
:104B8000EAE6159B0593059AAB009C58002C1DD0B6
:104B9000637D042BD8D1189B0593002B04D1049975
:104BA000139821F040FA1890002317930F4B03221B
:104BB00021000BA81993FEF7C7FA0D9B0593002B54
:104BC00004D1042221000BA8FEF7BEFA0135BBE692
:104BD000A3001858002801D022F020FC0134D7E6A9
:104BE0000A00280021F096FA1BB0F0BD94BC020028
:104BF000FF230322DB05CB1810B59343042804D808
:104C000015F0F8FA06030F0416000021080010BD85
:104C10000021181C15F0C2FC0A490028F6D00A49E8
:104C2000F4E7181C16F060FC012140000143EDE799
:104C3000802109065B18022193431943034BC918CD
:104C4000E4E7C046F0B60200E8B60200000080804B
:104C5000FF23DB0510B50400C81803239843002385
:104C600086B00193063300931022613302A90EF03F
:104C7000EDFD02A920001FF0C9FF2E2102A824F09B
:104C8000FAFB00280FD1652102A824F0F4FB0028CC
:104C900009D16E2102A824F0EEFB002803D10349BC
:104CA00020001FF0B3FF06B010BDC046F88A030015
:104CB00030B50C001100002285B01D0000920123C8
:104CC00020000FF017FF002C23D02868124B034060
:104CD000062B06D0032420420ED1104B02689A42C4
:104CE0000AD103A908F0A8FF00220399009213003B
:104CF00005F064FD05B030BD03002340022BF9D060
:104D000005F06EFB03000220A3431843044BC018B8
:104D1000F0E70448EEE7C046070080FFA8A50200C0
:104D20000000808002008080F0B5050087B0100090
:104D3000019105F055FB041C0390681F182800D949
:104D4000BDE015F057FA0D121F24333E6F81BCBC35
:104D5000BCBCBC0D121F24333E6F9FA8ADB2B70080
:104D60000198211C15F042FD03E0211C019816F06A
:104D7000E1F9019003230198524A9843013B034310
:104D80009B187CE0211C019816F0A2F8F1E70021A5
:104D9000201C15F003FC002803D04B494B481FF0A2
:104DA00033F903A901A81EF00FFFE3E70021201C3F
:104DB00015F0F4FB0028F0D1211C019815F0B0FE8D
:104DC000D7E70021201C15F0E9FB0028E5D1211CC4
:104DD000019819F021F80021041C019015F0DEFB68
:104DE000002807D0039A0023002A01DA80231B063B
:104DF0000193BFE70021201C039E012715F0D4FB7F
:104E0000002800D1071C0021301C012515F0CCFB27
:104E1000002800D1051CFFB2EDB2AF42AAD0311C70
:104E2000201C9FE7019D0021281C15F0B7FB0028DE
:104E300005D00021201C15F0B7FB0028ADD1211CA6
:104E4000281C19F0CDF894E70021201C15F0A6FBD2
:104E50000028A2D103A901A81EF0B6FE0322022059
:104E6000019B1849934303435B180493039B9343AB
:104E700003435B1804A9059300F0BAFE0300180071
:104E800007B0F0BD0199201C15F0A2FB104B0028C3
:104E9000F5D1104BF3E70199201C15F085FBF5E7E0
:104EA0000199201C15F07AFBF0E70199201C15F000
:104EB00099FBEBE70199201C15F080FBE6E7002346
:104EC000DDE7C04600008080D533030070EA0200B1
:104ED000F0B60200E8B60200044B88600B60044B99
:104EE00008004B600023CB607047C04654E20200CC
:104EF000B73C020013B50400080001A908F07EFACF
:104F0000002C03D0012C07D0002004E0019B0548B1
:104F1000002B00D1044816BD01991FF011FE40007E
:104F20002043F8E7F0B60200E8B60200F0B585B01D
:104F30000400080003A9150008F060FA0600002D1F
:104F400007D10300039A2F4920001FF020FF05B06E
:104F5000F0BD039B0200C318002101200193019BB7
:104F6000934206D82727002900D0053F3A0026495A
:104F70001AE01378272B08D0223B5D426B41DBB24D
:104F80000132002BEBD02727F0E700230100F7E7E1
:104F900030001FF0A2FD050030001FF0B9FD060033
:104FA000AF4205D13A00194920001FF0F0FE14E08D
:104FB00017495C2D0ED02B00203B5E2B01D82A0018
:104FC000D5E714490A2D05D013490D2D02D0092D1E
:104FD0000CD1124920001FF019FE019BB342D7D813
:104FE0003A00094920001FF0D2FEB0E7FF2D02D899
:104FF0002A000B49D8E70B4B2A000B499D42D3D915
:105000000A49D1E7593403005F3403005E340300DA
:105010006234030065340300683403006B3403001A
:105020006E340300FFFF0000753403007C3403007E
:10503000F7B51E0008AB1D78294B0C0017009842ED
:1050400006D12B003200390005F03EFA2018FEBDD3
:10505000F30715D576100196019BE219002B2ADA89
:1050600000213F260127501EA04219D2002900D05E
:1050700001932000002DEAD11A491B481EF0C4FFFD
:1050800001A9300005F086F90028E5D130001FF0B5
:1050900060FF1649020016480EF0E2FE0FF00AFD0E
:1050A0000278B243802A01D039000133421E002B1E
:1050B000CDD01000D8E72000012600243F279042E1
:1050C00004D3002C00D001931000D3E7013BBED3E2
:1050D000340001300178B9438029F0D10130F9E77B
:1050E00058C002000E340300B0E60200E6330300AD
:1050F000BCE90200F0B587B004000E00170005F00F
:1051000023F802A90500200008F078F90400042F14
:105110004ED1B30734D1274B32689A4230D105AB18
:1051200004AA03A930001FF00EF8059B224FBB42D2
:1051300004D0032B02D0214801F0BCFE039B2600C3
:10514000BB4207D00122210000922800029AFFF7FB
:105150006FFF0600029A049BA118BB4206D00121F2
:10516000280000912100FFF763FF01000E208E420E
:1051700004D88A1B2800310021F052F807B0F0BD96
:105180000023029A0093210033002800FFF750FF0C
:105190000278012153B2002B06DA4023012101E0FD
:1051A00001315B081342FBD1012208F0EDF8E5E77D
:1051B0000020E3E76CAD020058960200283403009B
:1051C00010B5040048680022043007490AF0C6F907
:1051D000064A002803D0406808F018FD0200044980
:1051E00020001FF0D4FD10BDE60F0000C12E03000B
:1051F0008334030070B5150012680C004068002A63
:105200000AD1CC000621043021430AF0A7F9002876
:1052100001D043682B6070BD03799B070BD50C4B05
:105220009842F8D10B4EF36D002B03D101201EF0F4
:1052300027FEF065F06D06216A68E4002143002A2C
:1052400003D11EF060FE0023E4E71EF052FEFAE7F1
:10525000789F02007C2E002070B50625C000054313
:10526000012229000B480AF079F944680600002C55
:105270000ED108201EF039FD074B04000360012009
:105280001EF0FEFD2A00606004491EF032FE7460CC
:10529000200070BDB82E002080A70200E60F00009D
:1052A00010B50C000621C0000143012202480AF09B
:1052B00055F9446010BDC046B82E002073B50625D0
:1052C000C3001D4306000022290010480AF046F9D9
:1052D000041E18D1020029000D480AF03FF9041EEF
:1052E00012D0F6216A46FF31406800F043FF009B70
:1052F000002B08D000216A4608001EF049FE6168B4
:105300003000FFF7CDFF606876BDC046B82E0020A4
:10531000A4A6020010B5010083880120A0229840B5
:10532000044BD205D050CA8808311CF0BBFB0248A0
:1053300010BDC0460C05000058960200EFB50700EE
:1053400008001500F98802000023386805F0BCF851
:1053500003267043002D14D03F18042D14D10123CF
:105360007A7A01A952001A4301923A7A30009A409F
:105370001A430292BA7A9A401343039300F038FC1E
:105380000500280004B0E0BD310001AA280005F0A6
:1053900087F8019B186804F0BFFF019B060058685E
:1053A00004F0BAFF019B0500986804F0B5FFFF2EDA
:1053B00003D8FF2D01D8FF2802D9044801F088FB4B
:1053C0003D727E72B872024DDBE7C046AA3403001C
:1053D00058960200F7B51C00002300930233080022
:1053E00011001A000FF086FB20681EF0E7FE47B29E
:1053F000606804F091FF041E02DC104801F068FBB5
:1054000003263000604308301EF06FFC0C4BA2B244
:105410000500878072430360C4800021083023F0B8
:10542000EEFF3B00A022C133FF33D2059B009E500C
:105430000123BB40034928005350FEBD91340300B3
:1054400014A802000C050000032210B50400C38854
:1054500000215A43083023F0D2FF2000FFF75AFF03
:10546000004810BD5896020010B50C0021F046FC13
:10547000631E184207D002002300034903480EF0C0
:10548000EFFC0FF017FB10BDB934030034EA020043
:1054900010B54A680249D2001FF079FC10BDC04621
:1054A000E134030070B50B0006001400101E0FD08D
:1054B00071681800042A0ED1FFF7D6FF7368012B1C
:1054C00003D0022B05D0006800E0007821F0D9FB62
:1054D00070BD0088FAE7FFF7C7FF0500200004F061
:1054E00047FF726803000548012A03D0022A03D04F
:1054F0002B60EDE72B70EBE72B80E9E75896020075
:10550000F8B50E000500140003F0B8FB33000327C4
:105510002B433B420BD1BC4209D9A20831002800E1
:1055200013F0A2FD2300BB43ED18F6183C40002CFD
:1055300004D022003100280023F06FFB80220449B0
:10554000D2008B58002BFCD003F088FBF8BDC0467E
:1055500000E00140A3230021024A5B000248D1522F
:105560007047C0467C2E002058960200A3230121DC
:10557000024A5B000248D1527047C0467C2E002090
:1055800058960200A323044A5B00D35A0348002B19
:1055900000D103487047C0467C2E0020F0B60200C0
:1055A000E8B6020010B50AF02BFE014810BDC04657
:1055B0005896020010B50C4C002808D1FC34236D1D
:1055C00018005A1C02D0180121F05BFB10BD0868BE
:1055D00004F0A2FEFC34031E044803DA01235B42FC
:1055E0002365F3E71B09FBE77C2E00205896020099
:1055F000044B88600B60044B08004B600023CB60B9
:105600007047C04654E20200193E0200044B0B6092
:10561000037A0B71436808008B600023CB607047EE
:105620002CAA020010B504000C201EF05EFB034BF8
:10563000446003600223037210BDC04668AA0200E2
:1056400010B5043021F0EBF8004810BD5896020068
:10565000002803D0012808D0002005E007224B686D
:105660000448934300D1044870474B68DB085B0053
:105670001843F9E7F0B60200E8B602000B6870B50F
:1056800006000D00181D4968140009F067FF002886
:1056900002D04368002B10D1022E08D1094B022CF6
:1056A00006D16968084821F035FF0FF003FAAB68AE
:1056B000012C00D14360180070BD022CFBD10022E8
:1056C0004260F8E758960200ECE6020070B504006C
:1056D0000D000B7A164A9B0086B099581FF096FA77
:1056E000144920001FF092FA134B02AA02932B7A5E
:1056F000012613716B68019304930023059302A89C
:105700001EF094FB051E05D10C4920001FF07EFA07
:1057100006B070BD002E03D1094920001FF076FAB3
:1057200001222900200004F027FD0026E7E7C046FB
:10573000A4AA02003C3503002CAA02003F35030056
:105740008B030300F0B513681400012287B00F68C3
:105750000D000092D908022306000FF0CBF9022EAB
:1057600012D103236868034018D101682A4AC96826
:10577000914213D12A68904206D0059305A9686822
:105780001EF035FB061E01D100253EE0381D01222A
:10579000316809F0E3FE73684360EFE7002100F031
:1057A00067FD0390039800F0C5FD0028ECD00021B0
:1057B00000F05EFD050000F0BDFD0290280000F045
:1057C000B9FD0600280000F0B5FD029B002B03D0B8
:1057D000002E01D0002802D0104801F079F9381DC0
:1057E0000122029909F0BAFE4660DBE7A368EE00E9
:1057F0009E193168002907D0042905D0381D0122DF
:1058000009F0ACFE7368436001356368AB42EDD8C4
:10581000034807B0F0BDC046915A0000163503009A
:105820005896020030B5002585B001A90400019505
:105830001EF0DDFAA84203D109490A481EF0E4FB34
:10584000636802A9083B636003680293436803939B
:10585000042328C0022000F0CBF905B030BDC046BB
:10586000F1340300ECE60200F7B50C0015001B282C
:105870000DD000231F2808D1081D0022290009F09F
:105880006DFE2C4B002800D12B4B1800FEBD0322CF
:105890002B001340114225D1284922688A4221D188
:1058A000002BF1D1296891421ED1009301936946E2
:1058B00020001EF09CFA01A9070028001EF097FAAC
:1058C0000600002F31D00028DED03168386804F09F
:1058D000D1FC0028D8D07168786804F0CBFC00288F
:1058E000E5D1D1E7002BCFD1154B2A689A42CBD115
:1058F0006A686368534007229343C5D1019301A9A5
:1059000020001EF074FA061E01D10A4BBDE7281DC7
:105910000022316809F022FE0028B5D04168706885
:1059200004F0A8FC0028EAD1AEE7024B0028ABD176
:10593000ABE7C046F0B60200E8B60200ECAA0200EF
:10594000B0AA0200F7B50B681C4A04000D00934290
:1059500003D05A681A491FF01AFA1A4920001FF09A
:1059600055F900230127019301A928001EF03FFAF1
:10597000061E0CD1144920001FF048F92B680F4A6D
:10598000934203D0114920001FF040F9F7BD002FCA
:1059900003D10F4920001FF039F90122316820009E
:1059A00004F0EAFB0B4920001FF030F90122716876
:1059B000200004F0E1FB0027D6E7C046B0AA0200B1
:1059C00010350300143503002C410300993C0300FB
:1059D0008B030300D03E030010B504000C201EF022
:1059E00084F9034B446003600023037210BDC0467A
:1059F00068AA020010B504000C201EF076F9034BD3
:105A0000446003600123037210BDC04668AA02000F
:105A100010B5043000220C0009F0A0FD002805D1CB
:105A20002100034821F076FD0FF044F8406810BDD6
:105A3000ECE6020010B5024B08C020F0D5FE10BD08
:105A4000B0AA0200F8B50E0007000021706800F04F
:105A50000FFC0E4C0500022F00D9B468706804F0EA
:105A600075FD002809D11EF00BFA0600280000F091
:105A700061FC011E03D13000F8BD4010F3E7331D77
:105A80000122180009F06AFD4460EFE75896020011
:105A9000F0B5070089B000201E000D0001921EF035
:105AA000EFF90E4B040007609F4203D104230279F3
:105AB00013430371019B2B430DD03368AA00B21826
:105AC000019905A80394049320F09CFE681C05AA84
:105AD00003A9FFF737FE200009B0F0BDECAA0200D1
